:020000040800F2
:10000000000005207D5400088108000883080008CE
:10001000850800088708000889080008000000001B
:100020000000000000000000000000008B08000835
:100030008D080008000000008F08000891080008E3
:10004000CD540008CD540008CD540008CD5400080C
:10005000CD540008CD540008CD540008CD540008FC
:10006000CD540008CD540008CD540008CD540008EC
:10007000CD540008CD540008CD540008CD540008DC
:10008000CD540008CD540008CD540008CD540008CC
:10009000CD540008CD540008CD540008CD540008BC
:1000A000CD540008CD540008CD540008CD540008AC
:1000B000CD540008CD540008CD540008CD5400089C
:1000C000CD540008CD540008CD540008CD5400088C
:1000D000CD540008CD540008CD540008CD5400087C
:1000E000CD540008CD540008CD540008CD5400086C
:1000F000CD540008CD540008CD540008CD5400085C
:10010000CD540008CD540008CD540008CD5400084B
:10011000CD540008CD540008CD540008CD5400083B
:10012000CD540008CD540008CD540008CD5400082B
:10013000CD540008CD540008CD540008CD5400081B
:10014000CD540008CD540008CD540008990800088B
:10015000CD540008CD540008CD540008CD540008FB
:10016000CD540008CD540008CD540008CD540008EB
:10017000CD540008CD540008CD5400080000000004
:10018000CD540008CD540008CD540008CD540008CB
:10019000CD540008CD540008CD540008CD540008BB
:1001A000CD540008CD540008CD540008CD540008AB
:1001B000CD540008CD540008CD540008CD5400089B
:0801C000CD540008CD540008E5
:1001C80010B5054C237833B9044B13B10448AFF389
:1001D80000800123237010BD0002002000000000F1
:1001E800C856000808B5034B1BB103490348AFF3D1
:1001F800008008BD0000000004020020C856000866
:1002080053B94AB9002908BF00281CBF4FF0FF3175
:100218004FF0FF3000F072B9ADF1080C6DE904CE73
:1002280000F006F8DDF804E0DDE9022304B07047C9
:100238002DE9F047089E04468846002B4BD18A4298
:10024800154667D9B2FA82F24AB1C2F1200701FA1B
:1002580002F320FA07F7954047EA030894404FEA6B
:10026800154E230CB8FBFEF71FFA85FC0EFB17880A
:1002780043EA084307FB0CF1994209D9EB1807F147
:10028800FF3080F01B81994240F21881023F2B44D5
:100298005B1AA4B2B3FBFEF00EFB103344EA03442E
:1002A80000FB0CFCA44509D92C1900F1FF3380F0A0
:1002B8000781A44540F2048102382C4440EA0740F3
:1002C800A4EB0C0400271EB1D4400023C6E9004368
:1002D8003946BDE8F0878B4209D9002E00F0EB8043
:1002E8000027C6E9000138463946BDE8F087B3FA69
:1002F80083F7002F47D18B4202D3824200F2FA8063
:10030800841A61EB030301209846002EE0D0C6E969
:100318000048DDE702B9FFDEB2FA82F2002A40F0B7
:100328008F80491B4FEA154E1FFA85F80127B1FB4C
:10033800FEFC230C0EFB1C1143EA014308FB0CF1E5
:10034800994207D9EB180CF1FF3002D2994200F21A
:10035800CD808446591AA3B2B1FBFEF00EFB1014EF
:1003680043EA044408FB00F8A04507D92C1900F11A
:10037800FF3302D2A04500F2B6801846A4EB080469
:1003880040EA0C409FE7C7F1200CBB4022FA0CFE64
:100398004EEA030E01FA07F420FA0CF521FA0CF3E1
:1003A8004FEA1E482543B3FBF8F92C0C08FB193318
:1003B8001FFA8EFA44EA034309FB0AF49C4202FA44
:1003C80007F200FA07F10BD91EEB030309F1FF301E
:1003D80080F087809C4240F28480A9F1020973442E
:1003E8001B1BADB2B3FBF8F008FB103345EA03441E
:1003F80000FB0AFAA24508D91EEB040400F1FF33FA
:100408006BD2A24569D90238744440EA0940A0FB7E
:100418000289A4EB0A044C45C2464B4654D351D03A
:10042800002E69D0B1EB0A0564EB030404FA0CFC56
:10043800FD40FC404CEA0505C6E90054002747E7A3
:10044800C2F1200320FA03F7954001FA02F021FADD
:1004580003F34FEA154E3843010CB3FBFEF71FFABE
:1004680085F80EFB173341EA034107FB08F38B427B
:1004780004FA02F407D9691807F1FF3C2FD28B421E
:100488002DD9023F2944CB1A81B2B3FBFEF00EFBF3
:10049800103341EA034100FB08F38B4207D969187E
:1004A80000F1FF3C17D28B4215D902382944C91AEA
:1004B80040EA07473BE73746304609E70746E7E69D
:1004C8001846FBE64145ABD2B8EB020A69EB0E02CF
:1004D80001381346A4E76046E9E7184695E76746FA
:1004E800D1E781467CE702382C4447E7ACF1020C9F
:1004F8002B442FE7384608E73746E9E6704700BF40
:10050800054B064A1A6000225A609A60DA601A613E
:100518005A619A61704700BF3C020020002C0140DC
:100528002DE9F04F8DB000240794089409940A949B
:100538000B94584B1A6B42F004021A631A6B02F0C0
:1005480004020192019A1A6B42F080021A631A6B34
:1005580002F080020292029A1A6B42F001021A63B8
:100568001A6B02F001020392039A1A6B42F002021C
:100578001A631A6B02F002020492049A1A6B42F090
:1005880008021A631A6B02F008020592059A1A6BA0
:1005980042F040021A631B6B03F040030693069B6C
:1005A800DFF80491224644F28101484600F04CFBF2
:1005B800394F22464021384600F046FB4FF4005B95
:1005C800CDF81CB0354B08930994DFF8E0A007A9D3
:1005D800504600F04BFA32230793022608960994F6
:1005E80003250A954FF00B08CDF82C8007A9504633
:1005F80000F03CFA86230793089609940A95CDF8EB
:100608002C8007A9264800F031FA44F281030793A9
:100618004FF0010ACDF820A009940A9407A948468A
:1006280000F024FACDF81CB0089609940A95CDF884
:100638002C8007A9484600F019FA4FF44073079335
:10064800089609940A9507230B9307A9154800F003
:100658000DFA40230793CDF820A009940A9407A91E
:10066800384600F003FA802307930894099407A9F1
:10067800384600F0FBF94FF4205307930896099485
:100688000A95CDF82C8007A9384600F0EFF90DB08F
:10069800BDE8F08F00380240001802400000111039
:1006A80000000240000C0240000402400008024022
:1006B80072B6FEE700B5B5B03022002128A804F0D4
:1006C8003DFF002123912491259126912791842291
:1006D80002A804F033FF01F093F8294B1A6C42F09A
:1006E80080521A641B6C03F080530093009B254BC7
:1006F8001A6842F440421A601B6803F440430193AD
:10070800019B012328934FF4A023299302232E93BE
:100718004FF480022F9204223092D82231923293E1
:100728000923339328A801F0B1F800BB01F070F851
:10073800F8B90F23239302232493002325934FF41E
:10074800A05326934FF480532793072123A801F041
:1007580023FB80B94FF420030293002321932293B3
:1007680002A801F0D3FB40B935B05DF804FBFFF7F0
:100778009FFFFFF79DFFFFF79BFFFFF799FF00BF64
:10078800003802400070004008B500F0D5F8FFF7C7
:1007980091FFFFF7C5FEFFF7B3FE04F0BFFB03F0C0
:1007A800E5FB0821014804F021FCFEE70C5700088E
:1007B80082B00A4B1A6C42F080521A641A6C02F02A
:1007C80080520092009A5A6C42F480425A645B6CE0
:1007D80003F480430193019B02B070470038024044
:1007E80070B588B000230393049305930693079389
:1007F80002681E4B9A4201D008B070BD03F58633DB
:100808005A6C42F400625A645A6C02F40062009214
:10081800009A1A6B42F004021A631A6B02F004027F
:100828000192019A1A6B42F008021A631B6B03F0DB
:1008380008030293029B4FF48853039302260496FD
:10084800032506950C2407940DEB0401084800F0D5
:100858000DF9042303930496002305930695079442
:100868000DEB0401034800F001F9C5E7002C014035
:1008780000080240000C0240FEE7FEE7FEE7FEE744
:10088800FEE770477047704708B500F061F808BD8B
:1008980008B5024800F09EFB08BD00BFFC1B002005
:1008A80008B503460B4A126842B10A4A1068034465
:1008B8006A46934206D8074A136008BD054A0649A6
:1008C8001160F2E704F000FE0C2303604FF0FF30E4
:1008D800F3E700BF1C02002008200020034AD2F8DA
:1008E800883043F47003C2F88830704700ED00E0A8
:1008F80010B504460E4B18784FF47A73B3FBF0F337
:100908000C4A1068B0FBF3F000F09AF868B90F2CA5
:1009180001D901200AE0002221464FF0FF3000F003
:100928004FF8034B5C60002000E0012010BD00BFC1
:10093800040000200000002008B5032000F02EF875
:100948000020FFF7D5FFFFF733FF002008BD0000A8
:10095800034A1168034B1B780B441360704700BFB0
:10096800C002002004000020014B1868704700BF37
:10097800C002002038B50446FFF7F6FF0546B4F17B
:10098800FF3F02D0044B1B781C44FFF7EDFF401BD0
:10099800A042FAD338BD00BF040000200649CB6846
:1009A80023F4E0631B041B0C000200F4E060034323
:1009B800024A1A43CA60704700ED00E00000FA05D9
:1009C80030B4154BDB68C3F30223C3F10704042CCE
:1009D80028BF04241D1D062D14D9033B4FF0FF35F5
:1009E80005FA04F421EA0401994005FA03F322EA1E
:1009F80003031943002807DB0901C9B2074B19543F
:100A080030BC70470023E9E700F00F000901C9B2C4
:100A1800034B1954F4E700BF00ED00E000E400E0E8
:100A280014ED00E0002807DB00F01F024009012355
:100A38009340024A42F82030704700BF00E100E0CE
:100A48000138B0F1807F0AD2064B5860064AF0217F
:100A580082F823100020986007221A60704701204E
:100A6800704700BF10E000E000ED00E000230F2B0E
:100A780000F2E180F0B583B039E0092200E00022FD
:100A8800B2403A4302346C4E46F824206B4A14684C
:100A9800EA4302EA04064F6817F4803F01D045EAAA
:100AA8000406664C2660646802EA04064F6817F478
:100AB800003F01D045EA0406604C6660A46802EA7B
:100AC80004064F6817F4801F01D045EA04065B4C02
:100AD800A660E46822404E6816F4001F01D045EA7B
:100AE8000402564CE26001330F2B00F2A28001226F
:100AF8009A400C6804EA0205AA42F4D14C68661EC2
:100B0800112C18BF012E01D9122C12D186685F0052
:100B18000324BC4026EA0406CC68BC403443846005
:100B2800466826EA02064C68C4F300129A4032432B
:100B38004260C2685F000326BE40F64332408C68BC
:100B4800BC401443C4604A68122A18BF022A13D151
:100B5800DC08083450F824E003F007024FEA820C5E
:100B68000F2202FA0CF22EEA020E0A6902FA0CF2BD
:100B780042EA0E0240F82420026816404A6802F051
:100B88000302BA40324302604A6812F0805FAAD07A
:100B98002B4A546C44F480445464526C02F48042EE
:100BA8000192019A9C08A61C234A52F8267003F069
:100BB800030296000F22B24027EA0207214A904218
:100BC8003FF45DAF02F58062904222D002F5806268
:100BD800904220D002F5806290421ED002F58062D9
:100BE80090421CD002F5806290421AD002F58062D1
:100BF800904218D002F58062904216D002F58062C9
:100C0800904214D002F5806290423FF436AF0A2237
:100C180036E7012234E7022232E7032230E70422D2
:100C28002EE705222CE706222AE7072228E70822D2
:100C380026E703B0F0BD704700380140003C014092
:100C4800003802400000024012B90904816170476F
:100C5800816170472DE9F04782B00768CA00521ACF
:100C6800930003445A6D1B6D9A4257D8B8469B1A95
:100C7800C1EBC104A2000244526C9A4200D31A4646
:100C88000C46064602F1030A4FEA9A0A16E009F1F1
:100C9800030A4FEA9A0AE3001B1B9D003544A96C1E
:100CA800337C00931FFA89F3E2B2384602F02EFF34
:100CB800AB6C4B44AB646B6D4B446B6508EB4413F6
:100CC80003F510639B699BB2534513D3E3001B1BC9
:100CD8009A003244516D136D99420BD253B15B1A8D
:100CE800C4EBC4018A003244D2F844909945CED36B
:100CF8009946CCE7E3001B1B98000644326D736DE0
:100D08009A420FD804F00F040121A140D7F83448C3
:100D180024EA0104C7F83448002000E0012002B0AA
:100D2800BDE8F0870020FAE7F0B58BB0002800F0A6
:100D380091800446056890F8BD3323B3032384F8F3
:100D4800BD33EB6B13F4807F01D10023236120684E
:100D580002F06CFC254655F8107B6E460FCD0FC689
:100D68000FCD0FC695E8030086E80300231D0ECBC0
:100D7800384602F0A1FB58B1022384F8BD3301259F
:100D880028460BB0F0BD80F8BC3304F0E1F9D5E794
:100D98000021206802F050FC002315E0D900C81A91
:100DA80082002244012082F83D0082F83C30A2F8FB
:100DB8004230002082F83F0050649064CA1A9100C3
:100DC800214408650133DBB26568AB42E6D30023F2
:100DD80015E0D800C11A8A002244002182F8FD11CA
:100DE80082F8FC3182F8FF11C2F80412C2F8081226
:100DF800C21A90002044C0F810120133DBB29D42A1
:100E0800E7D8254655F8107B6E460FCD0FC60FCD97
:100E18000FC695E8030086E80300231D0ECB38466D
:100E280002F050FC054660B9002384F838300123ED
:100E380084F8BD33636A012B08D0206803F013F8E7
:100E48009EE7022384F8BD33012599E7204600F088
:100E5800C3FCF2E7012593E790F8BC33012B0ED0D1
:100E680010B50446012380F8BC33006802F0D8FBB3
:100E7800206802F0EAFF002084F8BC0310BD0220BD
:100E88007047000070B504460D460068066C00EB1C
:100E9800411303F530639A682169012911D0374954
:100EA8008E4254D03DB9C5EBC50293002344D3F814
:100EB8001032002B5CD0E9B2204604F0A1F90020E2
:100EC80070BD12F0080F09D02D498E42F7D912F4DF
:100ED800004FF4D04FF400429A60F0E712F0200F70
:100EE80028D112F0280FEAD125498E4202D912F4EE
:100EF800004F22D1E900491B8A002244D2F804128B
:100F08001B69C3F31203C91AC2F81412D2F80412E7
:100F1800D2F808320B44C2F8083235B9C5EBC5021D
:100F280093002344D3F810325BB1E9B2204604F0B1
:100F380067F9C4E720229A60C1E74FF400429A603B
:100F4800BDE704F57172012102F0E0FFEDE712F44C
:100F5800004F09D112F0200F01D020229A60E9B287
:100F6800204604F04DF9AAE74FF400429A60A6E73C
:100F780004F57172002102F0C9FF9CE70A31544F51
:100F88000A30544F38B5044603681D6C03EB411111
:100F9800D1F8082B0E4B9D4207D901F5306112F4A8
:100FA800004F02D04FF400438B60204604F020F934
:100FB800074B9D4202D92369012B01D0002038BD7F
:100FC80004F571720121206802F0A0FFF6E700BF66
:100FD8000A30544F2DE9F84F04460568284602F0B8
:100FE80081FF08B1BDE8F88F2F460646206802F059
:100FF80048FF0028F6D0206802F043FF10F0020FE7
:1010080004D02268536903F002035361206802F098
:1010180038FF10F0100F15D02268936923F01003E1
:101028009361D5F8208008F00F09C8F34343022BD9
:1010380000F08580062B00F0A5802268936943F0B4
:1010480010039361206802F01CFF10F4002F40F099
:10105800AD80206802F015FF10F4802F40F0F18079
:10106800206802F00EFF0028C0F25F81206802F0BD
:1010780008FF10F4006F0AD0D5F8083813F0010FF4
:1010880040F06D812268536903F40063536120685E
:1010980002F0F7FE10F0006F15D02268536903F0D4
:1010A8000063536194F8F433002B40F05C81012114
:1010B80084F8F41323685B6DC3F38303C4F8F8332F
:1010C800204604F059F9206802F0DBFE10F4805F36
:1010D80040F04D81206802F0D4FE10F4005F40F02B
:1010E800AB81206802F0CDFE10F0080F40F0BC8103
:1010F800206802F0C6FE10F4801F40F0BE81206810
:1011080002F0BFFE10F4001F40F0C181206802F019
:10111800B8FE10F0804F40F0C481206802F0B1FEA4
:1011280010F0040F3FF45EAF23685D6815F0040FFC
:1011380040F0C081226853682B43536052E747F65A
:10114800F07318EA030F3FF478AF4FEAC90BABEB23
:1011580009034FEA830AA2444FEA1818C8F30A029F
:10116800DAF80812284602F0F1FDC8F30A08DAF89E
:1011780008324344CAF80832DAF814324344CAF849
:1011880014325AE7082204F57171284602F0DEFD90
:10119800C8F30A184FEAC903A3EB09018A002244DD
:1011A800D2F814324344C2F8143246E7206802F0F9
:1011B8006CFE8046B14617E007EB49130122C3F8DD
:1011C800082B49462046FFF75DFE1DE007EB491353
:1011D8000822C3F8082B49462046FFF7D3FE16E03D
:1011E80009F101094FEA5808B8F1000F3FF431AF8F
:1011F80018F0010FF4D05FFA89F1206802F055FE6B
:10120800824610F0010FD7D11AF0080FDED11AF07C
:10121800100F04D007EB49131022C3F8082B1AF05B
:10122800200F04D007EB49132022C3F8082B1AF427
:10123800005FD5D007EB49134FF40052C3F8082BD1
:10124800CEE7206802F029FE8046B1462AE05946DA
:10125800204603F0E1FF1AF0080F04D007EB49130A
:101268000822C3F808291AF0100F04D007EB491315
:101278001022C3F808291AF0400F04D007EB4913CD
:101288004022C3F808291AF0020F04D007EB4913CB
:101298000222C3F808291AF0800F41D109F1010987
:1012A8004FEA5808B8F1000F3FF4DAAE18F0010F12
:1012B800F4D05FFA89FB5946206802F0FFFD8246A8
:1012C80010F0010FC7D009F00F03012101FA03F252
:1012D800D7F8343823EA0203C7F8343807EB491340
:1012E800C3F8081923698B42B1D14FEAC902A2EBAE
:1012F800090293002344596C9A6C0A449A64B9F120
:10130800000FA4D1C9EBC902930023441B6D002B25
:101318009DD104F571720121206802F0F7FD96E76E
:1013280049462046FFF796FCB8E7D5F8043823F07D
:101338000103C5F8043894F8F433012B08D020468B
:1013480003F0AAFF2268536903F0004353618DE656
:10135800002184F8F413204604F00EF8F2E7204642
:1013680003F082FF8EE6204603F07EFFABE605F52C
:101378000068D8F8043023F00103C8F804301021BD
:10138800206802F071F920E007EB46134FF67F3131
:10139800C3F80819D3F8002922F40012C3F8002969
:1013A800D3F8002942F00062C3F80029C3F8081BEB
:1013B800D3F8002B22F40012C3F8002BD3F8002B2B
:1013C80042F00062C3F8002B01366368B342DBD8F1
:1013D800D8F81C3043F00113C8F81C30236BEBB16C
:1013E800D8F8843043F00B03C8F88430D8F8443078
:1013F80043F00B03C8F84430D5F8003823F4FE63F3
:10140800C5F8003804F57172217C206802F07EFD71
:101418002268536903F4805353615BE6D8F81420BB
:1014280042F22B031343C8F81430D8F8103043F0B5
:101438000B03C8F81030DFE7206802F057FD20687A
:1014480002F012FAE060256800F05AFD227B01469E
:10145800284602F06FF8204603F0EFFE2268536931
:1014680003F4005353613CE6204603F0E0FE226893
:10147800536903F0080353613AE60021204603F05C
:1014880017FF2268536903F48013536137E600217C
:10149800204603F007FF2268536903F400135361E1
:1014A80034E6204603F00AFF2268536903F08043BC
:1014B800536132E6204603F007FF3BE690F8BC3361
:1014C800012B0DD010B50446012380F8BC3380F8F9
:1014D8003810006802F0A9FC002084F8BC0310BD95
:1014E80002207047F8B511F0800F28D101F00F06DF
:1014F800F500AF1BBC00274604F5FC740444043413
:101508003E460644002586F8FD5101F00F01217082
:10151800A260E370627802B1E180022B1ED090F8DD
:10152800BC33012B1DD00546012380F8BC3321466E
:10153800006802F0A9F9002085F8BC03F8BD01F0A5
:101548000F06F500AF1BBC002746383404440434AA
:101558003E460644012586F83D50D6E70023237110
:10156800DDE70220EAE738B511F0800F21D101F05C
:101578000F05EA00541BA3001C4603F5FC73034443
:10158800043325460544002285F8FD2101F00F01AA
:10159800197090F8BC23012A1AD00446012280F859
:1015A800BC231946006802F0B7F9002084F8BC0390
:1015B80038BD01F00F04E200151BAB001D4638339F
:1015C800034404332C460444012284F83D20DDE71B
:1015D8000220EDE770B501F00F05EE00711B8C00DD
:1015E80004F5FC740444211D761BB4000444C4F8BB
:1015F8000822C4F810320023C4F8143284F8FD31EC
:1016080084F8FC510369012B06D065B1DAB2006891
:1016180002F090FA002070BDC5EBC506B400044482
:10162800C4F80C22F1E7DAB2006802F0E3F9F1E756
:1016380001F00F01C1EBC1018B001844D0F814026E
:10164800704770B501F00F05EE00711B8C0038343F
:101658000444211D761BB4000444A26423650023BE
:101668006365012384F83D3084F83C500369012BFD
:1016780006D05DB1DAB2006802F05CFA002070BDF5
:10168800C5EBC506B4000444E264F2E7DAB20068C8
:1016980002F0B0F9F2E738B501F00F0543689D4252
:1016A80036D811F0800F20D1CA00541AA3001C4666
:1016B80003F5FC730344043322460244002182F8F4
:1016C800FD1101229A701D7090F8BC23012A21D0C7
:1016D8000446012280F8BC231946006802F04AFB40
:1016E8007DB1002084F8BC0313E0EA00511B8B0095
:1016F80019463833034404330144012281F83D205C
:10170800DFE704F57172217C206802F0FFFBE8E74F
:10171800012038BD0220FCE710B501F00F04436832
:101728009C422CD811F0800F1DD1E3001A1B9100A8
:101738000A4601F5FC71014404310244002382F891
:10174800FD3100238B700C7090F8BC33012B18D03E
:101758000446012380F8BC33006802F038FB0020FF
:1017680084F8BC030CE0E3001A1B91000A463831E8
:10177800014404310244012382F83D30E1E70120AD
:1017880010BD0220FCE730B40468606A29B10D4638
:10179800A36A00EB134000230CE040EA0240A06279
:1017A80012E003F1400104EB8101496800EB1140AC
:1017B8000133DBB2691E8B42F3D340EA024005F1E4
:1017C8003F0104EB81014860002030BC704703688A
:1017D8005962002070470000024603680121C0F8E2
:1017E800FC13002082F8F4039A6942F000629A61BF
:1017F800596D024A0A435A65704700BF030000103A
:10180800024A136843F48073136070470070004005
:1018180010B582B01B4B1A6C42F080521A641B6CD4
:1018280003F080530193019B174A136843F48033F4
:101838001360FFF799F80446134B5B6813F4803F75
:1018480008D1FFF791F8001BB0F57A7FF4D903208F
:1018580002B010BD0C4A136843F400331360FFF75D
:1018680083F80446084B5B6813F4003F07D1FFF781
:101878007BF8001BB0F57A7FF4D90320E8E7002055
:10188800E6E700BF0038024000700040002800F082
:10189800098270B582B00446036813F0010F29D09D
:1018A800A24B9B6803F00C03042B1AD09F4B9B6838
:1018B80003F00C03082B0FD06368B3F5803F40D0CA
:1018C800002B54D1994B1A6822F480321A601A6896
:1018D80022F480221A6039E0944B5B6813F4800F7D
:1018E800EAD0924B1B6813F4003F03D06368002BC7
:1018F80000F0DA81236813F0020F75D08B4B9B68D8
:1019080013F00C0F5ED0894B9B6803F00C03082B77
:1019180053D0E368002B00F08A80844A136843F0B0
:1019280001031360FFF720F80546804B1B6813F08E
:10193800020F73D1FFF718F8401B0228F5D90320CE
:10194800B5E17A4A136843F48033136063682BB3B4
:10195800FFF70AF80546754B1B6813F4003FC9D119
:10196800FFF702F8401B6428F5D903209FE1B3F57F
:10197800A02F09D06D4B1A6822F480321A601A68B9
:1019880022F480221A60E1E7684B1A6842F4802248
:101998001A601A6842F480321A60D7E7FEF7E4FF4B
:1019A8000546624B1B6813F4003FA3D0FEF7DCFF2B
:1019B800401B6428F5D9032079E15C4B5B6813F47C
:1019C800800FA6D1594B1B6813F0020F04D0E368AF
:1019D800012B01D001206AE1544A136823F0F8036F
:1019E800216943EAC1031360236813F0080F46D046
:1019F800636983B34D4A536F43F001035367FEF79E
:101A0800B3FF0546494B5B6F13F0020F37D1FEF762
:101A1800ABFF401B0228F5D9032048E1434A13686D
:101A280023F0F803216943EAC1031360DCE73F4A66
:101A3800136823F001031360FEF796FF05463B4B3E
:101A48001B6813F0020FCFD0FEF78EFF401B022851
:101A5800F5D903202BE1354A536F23F0010353676F
:101A6800FEF782FF0546314B5B6F13F0020F06D07D
:101A7800FEF77AFF401B0228F5D9032017E12368F7
:101A880013F0040F7ED0294B1B6C13F0805F1ED11E
:101A9800264B1A6C42F080521A641B6C03F0805378
:101AA8000193019B0125224B1B6813F4807F10D002
:101AB800A368012B21D0002B3CD11C4B1A6F22F0BC
:101AC80001021A671A6F22F004021A671AE0002549
:101AD800E9E7174A136843F480731360FEF744FF7D
:101AE8000646134B1B6813F4807FE1D1FEF73CFFD9
:101AF800801B6428F5D90320D9E00C4A136F43F002
:101B080001031367A3685BB3FEF72EFF0646074B76
:101B18001B6F13F0020F34D1FEF726FF801B41F232
:101B280088339842F3D90320C1E000BF003802404F
:101B380000700040052B09D0604B1A6F22F001029B
:101B48001A671A6F22F004021A67DBE75B4B1A6FF9
:101B580042F004021A671A6F42F001021A67D1E7CD
:101B6800FEF702FF0646554B1B6F13F0020F08D015
:101B7800FEF7FAFE801B41F288339842F3D903201E
:101B880095E0FDB9A369002B00F090804B4A92685C
:101B980002F00C02082A58D0022B19D0474A1368C1
:101BA80023F080731360FEF7DFFE0446434B1B6887
:101BB80013F0007F47D0FEF7D7FE001B0228F5D9A7
:101BC800032074E03D4A136C23F080531364D9E773
:101BD8003A4A136823F080731360FEF7C5FE054682
:101BE800364B1B6813F0007F06D0FEF7BDFE401B86
:101BF8000228F5D903205AE0E369226A1343626A8E
:101C080043EA8213A26A5208013A43EA0243E26AAB
:101C180043EA026343F00053284A5360136843F0D1
:101C280080731360FEF7A0FE0446244B1B6813F074
:101C3800007F06D1FEF798FE001B0228F5D9032085
:101C480035E0002033E0002031E01C4A5268012BC7
:101C58002FD002F48003E1698B4201D0012026E0F5
:101C680002F03F03216A8B4201D001201FE0616A24
:101C780047F6C0731340B3EB811F01D0012016E073
:101C880002F44031A36A5B08013BB1EB034F01D07A
:101C980001200CE002F07062E36AB2EB036F0AD035
:101CA800012004E001207047012000E0002002B07C
:101CB80070BD0120FBE70020F9E700BF00380240B3
:101CC800324B9B6803F00C03042B5CD0082B01D02B
:101CD8002F4870472DE9F04B2C4B5A6802F03F0211
:101CE8005B6813F4800F2BD0284B5B68C3F3881311
:101CF8001E4600275C010025E41A65EB0705A901CB
:101D080041EA9461A001001B61EB0501CB0043EAA5
:101D18005073C400A01943EB07014B0243EAD053A8
:101D28004402204619460023FEF76AFA174B5B68FF
:101D3800C3F3014301335B00B0FBF3F0BDE8F08B64
:101D4800124B5B68C3F388131E4600275C0100250D
:101D5800E41A65EB0705A90141EA9461A001001B9B
:101D680061EB0501CB0043EA5073C400A01943EBB3
:101D780007018B0243EA9053840220461946002348
:101D8800FEF73EFAD2E70348704700BF003802402A
:101D98000024F40000127A00002800F0A38070B537
:101DA8000446524B1B6803F00F038B420CD24F4A78
:101DB800136823F00F030B431360136803F00F033A
:101DC8008B4201D0012070BD236813F0020F17D099
:101DD80013F0040F04D0464A936843F4E053936029
:101DE800236813F0080F04D0414A936843F4604312
:101DF80093603F4A936823F0F003A068034393601D
:101E08000D46236813F0010F31D06368012B20D0F1
:101E1800022B25D0364A126812F0020F64D03449DA
:101E28008A6822F0030213438B60FEF79DFD064685
:101E38002F4B9B6803F00C036268B3EB820F16D03C
:101E4800FEF792FD801B41F288339842F0D90320B7
:101E5800B9E7274A126812F4003FE0D10120B2E73F
:101E6800234A126812F0007FD9D10120ABE71F4B3B
:101E78001B6803F00F03AB420CD91C4A136823F00C
:101E88000F032B431360136803F00F03AB4201D019
:101E9800012098E7236813F0040F06D0144A9368CA
:101EA80023F4E053E1680B439360236813F0080FB1
:101EB80007D00F4A936823F46043216943EAC103BA
:101EC8009360FFF7FDFE0A4B9B68C3F30313094AAF
:101ED800D35CD840084B1860084B1868FEF708FD1B
:101EE800002070E70120704701206CE7003C0240A9
:101EF80000380240E05600080000002008000020DA
:101F0800014B1868704700BF00000020F0B583B08F
:101F18000446036813F0010F0CD0B64B9A6822F4FC
:101F280000029A609A68416B0A439A60436BC3B196
:101F3800002600E00026236813F4002F15D0AD4AD0
:101F4800D2F88C3023F44013E16B0B43C2F88C3089
:101F5800E36BB3F5801F06D0002B00F02981002524
:101F680004E00126E7E70126F6E70025236813F4D5
:101F7800801F0FD09F4AD2F88C3023F44003216C85
:101F88000B43C2F88C30236CB3F5800F00F012813C
:101F980003B90125236813F0807F00D0012613F0D0
:101FA800200F40F00981236813F0100F0CD0914BDB
:101FB800D3F88C2022F08072C3F88C20D3F88C20C0
:101FC800A16B0A43C3F88C20236813F4804F08D010
:101FD800884AD2F8903023F44033616E0B43C2F83C
:101FE8009030236813F4004F08D0824AD2F890301A
:101FF80023F44023A16E0B43C2F89030236813F4F6
:10200800803F08D07B4AD2F8903023F44013E16E29
:102018000B43C2F89030236813F4003F08D0754A88
:10202800D2F8903023F44003216F0B43C2F890306C
:10203800236813F0400F08D06E4AD2F8903023F08E
:102048000303616C0B43C2F89030236813F0800FD0
:1020580008D0684AD2F8903023F00C03A16C0B43E7
:10206800C2F89030236813F4807F08D0614AD2F810
:10207800903023F03003E16C0B43C2F890302368B2
:1020880013F4007F08D05B4AD2F8903023F0C003E5
:10209800216D0B43C2F89030236813F4806F08D089
:1020A800544AD2F8903023F44073616D0B43C2F860
:1020B8009030236813F4006F08D04E4AD2F890305D
:1020C80023F44063A16D0B43C2F89030236813F4E6
:1020D800805F08D0474AD2F8903023F44053E16D2E
:1020E8000B43C2F89030236813F4005F08D0414ACC
:1020F800D2F8903023F44043216E0B43C2F890305D
:10210800236813F4800F08D03A4AD2F8903023F0AD
:102118008063A16F0B43C2F89030236813F4001F4B
:102128000DD0344AD2F8903023F00063E16F0B43AE
:10213800C2F89030E36FB3F1006F00F0A780236816
:1021480013F0080F00D0012513F4802F08D0294A76
:10215800D2F8903023F04073616F0B43C2F890308F
:10216800236813F4000F09D0224AD2F8903023F0E4
:102178008053D4F880100B43C2F8903026B92368F6
:1021880013F0007F00F002811A4A136823F080637D
:102198001360FEF7E9FB0646164B1B6813F0006F49
:1021A80076D0FEF7E1FB801B6428F5D90320EFE029
:1021B8000125DBE60126EBE60E4B1A6C42F0805255
:1021C8001A641B6C03F080530193019B0A4A13683D
:1021D80043F480731360FEF7C7FB0746064B1B6882
:1021E80013F4807F0AD1FEF7BFFBC01B6428F5D922
:1021F8000320CDE00038024000700040AA4B1B6F5E
:1022080013F4407315D0226B02F440729A4210D036
:10221800A54B1A6F22F44072196F41F48031196787
:10222800196F21F4803119671A671B6F13F0010FBA
:1022380012D1236B03F44072B2F5407F1DD09A4A45
:10224800936823F4F813936097490B6F226BC2F3DA
:102258000B0213430B67A6E6FEF786FB0746924B75
:102268001B6F13F0020FE4D1FEF77EFBC01B41F297
:1022780088339842F3D903208AE08B48826822F495
:10228800F8128A4919400A438260DDE7012556E7BA
:10229800236813F0010F13D0636B8BB9824AD2F80D
:1022A8008430D2F88410606803F4403343EA801322
:1022B80001F070610B43A16843EA0173C2F88430EE
:1022C800236813F4002F03D0E26BB2F5801F06D009
:1022D80013F4801F1ED0236CB3F5800F1AD1724AF5
:1022E800D2F88430D2F88410606803F4403343EAAB
:1022F8008013E06843EA006301F0E0410B43C2F851
:102308008430D2F88C3023F01F03616A01390B4303
:10231800C2F88C30236813F0807F11D0624AD2F85B
:102328008400D2F88410666823691B0443EA861384
:1023380000F07060034301F0E0410B43C2F88430C1
:10234800236813F0007F0DD0626823691B0443EAF9
:102358008213E26843EA0263A26843EA0273524ABC
:10236800C2F88430504A136843F080631360FEF764
:10237800FBFA06464C4B1B6813F0006F06D1FEF7BC
:10238800F3FA801B6428F5D9032001E015B9002071
:1023980003B0F0BD444A136823F080531360FEF77E
:1023A800E3FA0546404B1B6813F0005F06D0FEF7C2
:1023B800DBFA401B6428F5D90320E9E7236813F406
:1023C800002F01D0E26B22B113F4801F1DD0236CC3
:1023D800DBB9354AD2F88830D2F88810606903F43E
:1023E800403343EA8013A06943EA006301F0E04107
:1023F8000B43C2F88830D2F88C3023F4F853A16A22
:10240800013943EA0123C2F88C30236813F4001F12
:1024180003D0E36FB3F1006F31D0236813F0080FD6
:1024280019D0214AD2F88810D2F88830606903F4AC
:10243800403343EA801301F070610B43E16943EADA
:102448000173C2F88830D2F88C3023F44033E16A43
:102458000B43C2F88C30144A136843F0805313605E
:10246800FEF782FA0446104B1B6813F0005F19D17F
:10247800FEF77AFA001B6428F5D9032088E70A4A90
:10248800D2F88800D2F888106569236A1B0443EAE9
:10249800851300F07060034301F0E0410B43C2F87C
:1024A8008830BAE7002073E700380240FFFCFF0FCE
:1024B80070B582B0044600230193006800F028FF3D
:1024C800064610B1304602B070BD206800F033FFF8
:1024D80038B90123A364A36C012B0BD035463046D1
:1024E80014E00023A364206800F012FF0028F2D053
:1024F8000646E7E70021206800F034FF0028EDD009
:102508004FF08056DEE7019B01330193019A4FF6A5
:10251800FE739A4213D895B90021206800F022FF73
:10252800D8B91249206800F035FF0546B8B900212E
:10253800206800F030FDC30FE5D01D46E3E7019A9F
:102548004FF6FE739A420DD810F0804F02D1002347
:102558006364B7E701236364B4E70646B2E74FF064
:102568008056AFE74FF08076ACE700BF000010C19F
:1025780070B581B10D460446016D0904006800F08C
:1025880065FF064608B1304670BD0021206800F09E
:1025980002FD2860F7E74FF00066F4E72DE9F04701
:1025A80086B004460D4616469846FEF7DDF96DB12D
:1025B800814694F83430DBB2012B0DD0A36B43F085
:1025C8000053A363012006B0BDE8F087A36B43F076
:1025D8000063A3630120F6E70023A36306EB080367
:1025E800E26D93422AD8032384F83430236800220A
:1025F800DA62636C012B00D076024FF0FF33009350
:102608004FEA482301939023029302230393002364
:102618000493012305936946206800F0BDFDB8F1D5
:10262800010F11D9022323633146206800F0F6FD1B
:102638008246BAF1000F0FD1019F22E0A36B43F04D
:102648000073A3630120BEE701232363314620689A
:1026580000F0CCFD8246ECE723685F4A9A63A36BDF
:1026680043EA0A03A363012084F8340000232363A8
:10267800A9E7FEF779F9A0EB09000E9B98421ED254
:10268800EBB12068436B13F4957F26D1436B13F4A9
:10269800004FEED0002FECD05646072EE9D8206820
:1026A80000F050FC2870C0F307236B70C0F3074399
:1026B800AB70000EE8700435043F0136EDE723687F
:1026C800454A9A63A36B43F00043A363012384F84C
:1026D800343000232363032075E7436B13F4807FB2
:1026E80005D0B8F1010F02D9636C032B36D12368EA
:1026F8005A6B12F0080F42D15A6B12F0020F4AD1EE
:102708005A6B12F0200F52D12068436B13F4001F4C
:1027180059D0002F57D000F015FC2870C0F30723BC
:102728006B70C0F30743AB70000EE8700435043FCC
:10273800FEF71AF9A0EB09000E9B984201D2002B74
:10274800E2D12368244A9A63A36B43F00043A3634E
:10275800012084F834000023236334E700F0A6FD49
:1027680003460028C3D022681B499163A26B134318
:10277800A363012084F834000023236323E7164A67
:102788009A63A36B43F00803A363012084F8340021
:102798000023236317E7104A9A63A36B43F00203ED
:1027A800A363012084F83400002323630BE70A4A5B
:1027B8009A63A36B43F02003A363012084F83400D9
:1027C80000232363FFE640F23A538363012384F82E
:1027D80034300020F7E600BFFF0540002DE9F04740
:1027E80088B004460D4616469846FEF7BDF86DB10A
:1027F800814694F83430DBB2012B0DD0A36B43F043
:102808000053A363012008B0BDE8F087A36B43F031
:102818000063A3630120F6E70023A36306EB080324
:10282800E26D934229D8032384F8343023680022C8
:10283800DA62636C012B00D076024FF0FF3302930B
:102848004FEA4823039390230493002305930693A8
:102858000123079302A9206800F09EFCB8F1010F3C
:1028680011D9202323633146206800F007FD8246F2
:10287800BAF1000F0FD1039F22E0A36B43F000735E
:10288800A3630120BFE7102323633146206800F0CB
:10289800DDFC8246ECE723684B4A9A63A36B43EA64
:1028A8000A03A363012084F8340000232363AAE702
:1028B800FEF75AF8A0EB0900109B984222D20BB3FE
:1028C8002068436B13F48D7F2AD1436B13F4804F38
:1028D800EED0002FECD05646072EE9D82B786A7830
:1028E80043EA0223AA7843EA0243EA7843EA026306
:1028F80008A941F81C3D0435043F206800F025FB79
:102908000136E9E72368304A9A63A36B43EA0A036E
:10291800A363012384F8343000232363032072E780
:10292800436B13F4807F05D0B8F1010F02D9636CB3
:10293800032B18D123685A6B12F0080F24D15A6B55
:1029480012F0020F2CD15A6B12F0100F34D01E4A1D
:102958009A63A36B43F01003A363012084F8340047
:10296800002323634FE700F0A1FC03460028E1D0D1
:10297800226815499163A26B1343A363012084F86D
:102988003400002323633EE70F4A9A63A36B43F0A6
:102998000803A363012084F834000023236332E78B
:1029A800094A9A63A36B43F00203A363012084F8E6
:1029B80034000023236326E740F23A529A63012346
:1029C80084F8343000201EE7FF05400010B4436E41
:1029D8009B0F0B70436EC3F383634B7090F86730A3
:1029E80003F003038B7090F86630CB7090F8653075
:1029F8000B7190F864304B71836E1B0DCB80B0F86F
:102A08006A3003F00F030B72836EC3F3C0334B724B
:102A1800836EC3F380338B72836EC3F34033CB7200
:102A2800836EC3F300330B7300234B73436C002B8B
:102A380040F08880826E40F6FC7303EA8203C26E1F
:102A480043EA92730B61C36EC3F3C2630B7590F8CC
:102A58006F3003F007034B75C36EC3F342538B7596
:102A6800C36EC3F38243CB75C36EC3F3C2330B7615
:102A78000B69013343650A7E02F00702023203FA4A
:102A880002F242650B7A03F00F040123A340836529
:102A98005B0A03FB02F3C3654FF400730366C36E5E
:102AA800C3F380334B76C36EC3F3C6138B76C36E02
:102AB80003F07F03CB76036FDB0F0B77036FC3F352
:102AC80041734B77036FC3F382638B77036FC3F351
:102AD8008353CB77036FC3F3405381F8203000232F
:102AE80081F82130B0F8722002F0010281F822202A
:102AF800026FC2F3C03281F82320026FC2F3803222
:102B080081F82420026FC2F3403281F82520026F39
:102B1800C2F3003281F82620026FC2F3812281F8C5
:102B28002720026FC2F3012281F82820026FC2F326
:102B3800460281F82920012281F82A2018465DF8EA
:102B4800044B7047012B0BD003680E4A9A63836BC2
:102B580043F080538363012380F834301846EEE74E
:102B6800836E1B0403F47C13B0F86E2013430B61CF
:102B78000B6901339B024365C3654FF4007383659A
:102B880003668CE7FF05400070B590B0044601234A
:102B9800ADF81230006800F0E5F900286CD0636CDD
:102BA800032B45D1636C032B5DD1636C032B1DD0C4
:102BB800BDF8121021650904206800F01AFC0546CA
:102BC80000285BD10021206800F0E5F96066042147
:102BD800206800F0E0F9A0660821206800F0DBF921
:102BE800E0660C21206800F0D6F9206704212068EF
:102BF80000F0D1F9000DE06405A92046FFF7E6FED4
:102C080000283ED1226D12040023206800F068FBE2
:102C1800054698BB234653F8106B93E807008DE8E8
:102C28000700043494E80E00304600F06FF925E000
:102C3800206800F0C9FB054600BB0021206800F0B1
:102C4800AAF960670421206800F0A5F9A0670821A7
:102C5800206800F0A0F9E0670C21206800F09BF9DB
:102C6800C4F880009EE70DF11201206800F0D6FB41
:102C78000546002899D001E04FF08065284610B03D
:102C880070BD4FF08055F9E730B58BB0044600238E
:102C980004930593069307930893762309930AAB45
:102CA80013E907008DE8070004AB0ECB206800F09D
:102CB8002DF918B1012528460BB030BD054622680C
:102CC800536823F480735360206800F043F9226846
:102CD800536843F4807353602046FFF7E9FB0346CB
:102CE80030B1012584F83450A06B1843A063E2E7A3
:102CF8002046FFF749FF034630B1012584F83450D8
:102D0800A06B1843A063D6E74FF40071206800F069
:102D180055FA0028CFD0236804499963A36B03436D
:102D2800A363012584F83450C5E700BFFF054000C0
:102D3800C0B110B5044690F834307BB1032384F851
:102D480034302046FFF7A0FF034670B90022A26383
:102D58002263012284F83420184610BD0377FDF75A
:102D68003FFDEBE70123184670470123F4E7436C66
:102D78000B60836C4B60C36C8B60036DCB60436DE1
:102D88000B61836D4B61C36D8B61036ECB6100205A
:102D9800704710B582B0044602A9002341F8043DEB
:102DA800FFF7E6FB18B10346A06B1843A063019830
:102DB800C0F3432002B010BD0B4B1B680B4AA2FBAB
:102DC80003235A0A41F2883303FB02F35A1E43B124
:102DD800416B134611F0800FF8D0C52383630020A0
:102DE80070474FF00040704700000020D34D62103C
:102DF800154B1B68154AA2FB03235A0A41F2883374
:102E080003FB02F35A1EDBB1416B134611F0450F69
:102E1800F8D011F4006FF5D1436B13F0040F07D10C
:102E2800436B13F0010F07D1C5238363002070475C
:102E38000423836318467047012383631846704749
:102E48004FF00040704700BF00000020D34D6210D3
:102E5800114B1B68114AA2FB03235A0A41F288331B
:102E680003FB02F35A1E9BB1416B134611F0450F49
:102E7800F8D011F4006FF5D1436B13F0040F03D1B0
:102E8800C523836300207047042383631846704773
:102E98004FF00040704700BF00000020D34D621083
:102EA800184B1B68184AA2FB03235A0A41F28833BD
:102EB80003FB02F35A1EFBB1416B134611F0450F99
:102EC800F8D011F4006FF5D1436B13F0040F0BD158
:102ED800436B13F0010F0BD1436B13F0400F0ED06F
:102EE8004023836300207047042383631846704798
:102EF80001238363184670474FF000407047002055
:102F0800704700BF00000020D34D621084B010B499
:102F180002AC84E80E000B46039A1343049A134349
:102F2800059A1343069A1343079A13434168044AC0
:102F38000A401343436000205DF8044B04B0704717
:102F48000081FFFFD0F8800070470B68C0F8803020
:102F58000020704708B5032303600220FDF70AFD2F
:102F6800002008BD006800F0030070470B6883600C
:102F78004B688A681343CA6813430A691343C168D4
:102F8800024A0A401343C3600020704700F0FFFF65
:102F98000069C0B2704714304058704738B5524B7A
:102FA8001B68524CA4FB03435B0A02FB03F2531E4B
:102FB800002A60D0446B1A4614F0450FF7D014F479
:102FC800006FF4D1436B13F0040F07D1436B13F078
:102FD800010F07D00123836318464EE0042383635F
:102FE80018464AE00D460446C5238363FFF7D0FF21
:102FF800A84201D0012040E000212046FFF7CBFF86
:103008003B4B0340D3B300283ADB10F0804F3AD152
:1030180010F0005F39D110F0805F38D110F0006FE8
:1030280038D110F0806F38D110F0807F38D110F48B
:10303800000F38D110F4800F38D110F4001F38D1A8
:1030480010F4801F38D110F4802F38D110F4003FCD
:1030580038D110F4803F38D110F4004F38D110F433
:10306800804F38D110F4005F38D110F0080F38D0F5
:103078004FF4000001E04FF0004038BD0020FCE7AD
:103088004FF00070F9E74020F7E78020F5E74FF4AC
:103098008070F2E74FF40070EFE74FF48060ECE7E0
:1030A8004FF40060E9E74FF48050E6E74FF4005032
:1030B800E3E74FF48040E0E74FF40040DDE74FF4EA
:1030C8000030DAE74FF48020D7E74FF40020D4E748
:1030D8004FF48010D1E74FF40010CEE74FF4800092
:1030E800CBE74FF48030C8E700000020D34D6210D2
:1030F80008E0FFFD70B5264B1B68264CA4FB034374
:103108005C0A41F2883303FB04F35C1EB3B3456BDE
:10311800234615F0450FF8D015F4006FF5D1436B31
:1031280013F0040F07D1436B13F0010F07D00123ED
:103138008363184624E004238363184620E0164678
:103148000D460446FFF724FFA84201D0012017E0EE
:10315800C523A36300212046FFF71DFF10F4604F2D
:1031680008D010F4804F0CD110F4004F0CD04FF45D
:10317800805005E0000C3080002001E04FF0004056
:1031880070BD4FF40050FBE74FF48030F8E700BF04
:1031980000000020D34D62100B6843624B688362C5
:1031A8008B68CA6813430A6913434A691343C26A9E
:1031B80022F0F7021343C3620020704730B587B08E
:1031C800054601911024029440230393002304939D
:1031D8004FF48063059301A9FFF7C8FE41F28832D6
:1031E80021462846FFF7DAFE07B030BD30B587B074
:1031F800054601911124029440230393002304936C
:103208004FF48063059301A9FFF7B0FE41F28832BD
:1032180021462846FFF7C2FE07B030BD30B587B05B
:10322800054601911224029440230393002304933A
:103238004FF48063059301A9FFF798FE41F28832A5
:1032480021462846FFF7AAFE07B030BD30B587B043
:103258000546019118240294402303930023049304
:103268004FF48063059301A9FFF780FE41F288328D
:1032780021462846FFF792FE07B030BD30B587B02B
:1032880005460191192402944023039300230493D3
:103298004FF48063059301A9FFF768FE41F2883275
:1032A80021462846FFF77AFE07B030BD30B587B013
:1032B8000546002301930C240294402203920493B0
:1032C8004FF48063059301A9FFF750FE034A214696
:1032D8002846FFF763FE07B030BD00BF00E1F505E3
:1032E80030B587B005460192072402944023039322
:1032F800002304934FF48063059301A9FFF736FE7A
:1033080041F2883221462846FFF748FE07B030BD13
:1033180010B586B0044600230193029303930493E7
:103328004FF48063059301A9FFF720FE2046FFF7BD
:1033380043FD06B010BD10B586B004464FF4D573F2
:1033480001930823029340230393002304934FF42B
:103358008063059301A9FFF709FE2046FFF7A0FD4A
:1033680006B010BD30B587B00546019137240294E8
:1033780040230393002304934FF48063059301A92A
:10338800FFF7F4FD41F2883221462846FFF706FE92
:1033980007B030BD10B586B004460A4B0B43019305
:1033A8002923029340230393002304934FF480635B
:1033B800059301A9FFF7DAFD2046FFF749FD06B09E
:1033C80010BD00BF0000108010B586B00446002371
:1033D800019302220292C022039204934FF4806365
:1033E800059301A9FFF7C2FD2046FFF701FD06B0CE
:1033F80010BD10B586B00446019109230293C0237D
:103408000393002304934FF48063059301A9FFF706
:10341800ADFD2046FFF7ECFC06B010BD70B586B0D8
:1034280005460E460023019303240294402203928A
:1034380004934FF48063059301A9FFF797FD324683
:1034480021462846FFF756FE06B070BD30B587B056
:10345800054601910D24029440230393002304930D
:103468004FF48063059301A9FFF780FD41F288328C
:1034780021462846FFF792FD07B030BD00230133EF
:103488000C4A934211D80269002AF8DA036943F01A
:103498000103036100230133064A934207D80269F6
:1034A80012F0010FF7D10020704703207047032066
:1034B800704700BF400D030084B010B5044603A850
:1034C80080E80E00089B012B1DD1A36B23F48033E9
:1034D800A363E268164B1340E360E36823F44013E8
:1034E800E3600F9B012B09D02046FFF7C7FF069B1F
:1034F800012B14D0BDE8104004B07047E36843F4D2
:103508008013E360F0E7E36843F04003E36020469C
:10351800FFF7B4FFA36B43F48033A363E7E7A36823
:1035280043F00603A360A36843F02003A360E1E728
:10353800BFFFBDFF022A0AD00921C26822F47052D7
:10354800C260C36843EA8123C36000207047274BE9
:103558000B44274A934239D9264B0B44264A9342B7
:1035680036D9264B0B44264A934233D9254B0B4474
:1035780002F5C332A03293422ED9234B0B44234A7F
:1035880093422BD9224B0B4402F5922202F5787212
:10359800934225D91F4B0B4402F5C32202F5207232
:1035A80093421FD91C4B0B4402F5B71202F558720F
:1035B800934219D9194B0B4402F5122202F5F8620D
:1035C800934201D90621B8E70721B6E70F21B4E7EE
:1035D8000E21B2E70D21B0E70C21AEE70B21ACE7D5
:1035E8000A21AAE70921A8E70821A6E7405327FFEF
:1035F800FF340C00401E1BFF3F420F0000DC0BFF96
:103608007F4F1200808CF9FE60B6E5FE5FE316007E
:1036180000D3CEFEC05BB3FE00CA91FEE05459FE53
:10362800836843F00103836000207047836823F0B8
:10363800010383600020704708B5C36823F0C043C6
:10364800C360012909D069B9C36843F08043C360E6
:103658003220FDF78FF9002008BDC36843F00053FE
:10366800C360F5E70120F7E7890141F02001016116
:1036780000230133054A934205D8026912F0200F4E
:10368800F7D1002070470320704700BF400D0300AA
:103698001023036100230133054A934205D80269C8
:1036A80012F0100FF7D1002070470320704700BFB9
:1036B800400D0300D0F800381943C0F80018002066
:1036C8007047000084B02DE9F041044607A880E85F
:1036D8000E002546002306E003F1400204EB8202B7
:1036E8000021516001330E2BF6D9119B33BBD4F85E
:1036F800043843F00203C4F80438A36B23F400131E
:10370800A363236843F040032360236843F08003E6
:1037180023600023C4F8003E04F50066D4F800389E
:10372800C4F800380C9B012B0DD0032B1CD1099B2E
:10373800ABB900212046FFF7BDFF19E0A36B43F4A6
:103748000013A363E5E7099B23B900212046FFF78F
:10375800B1FF0DE001212046FFF7ACFF08E0012191
:103768002046FFF7A7FF03E003212046FFF7A2FF4B
:1037780010212046FFF778FF804608B14FF0010876
:103788002046FFF785FF08B14FF001080023336199
:103798007361F3610AE0C3B94FF00060C2F8000931
:1037A80000220A614FF67F328A60013307999942F5
:1037B80010D905EB431202F51061D2F80009002870
:1037C800E9DB0020C2F80009EAE74FF09040C2F8B0
:1037D8000009E5E700230AE0BBB14FF09047C2F8C3
:1037E800007B002202614FF67F32826001339942EA
:1037F80010D905EB431202F53060D2F8007B002F98
:10380800EADB0027C2F8007BEBE74FF00067C2F85D
:10381800007BE6E7336923F4807333610023A361F7
:103828006FF0804363610A9B1BB9A36943F01003DF
:10383800A361A2690A4B1343A3610D9B1BB1A36942
:1038480043F00803A361119B012B04D04046BDE857
:10385800F04104B07047A269024B1343A361F5E736
:1038680000383C8004000040D0F8083813F0060304
:1038780005D0062B18BF022B03D102207047002069
:1038880070470F207047000070B40B784A78012AFF
:1038980020D0D0F81C2803F00F060124B44042EAD7
:1038A8000442C0F81C2800EB4310D0F8003B13F486
:1038B800004F0CD1D0F8002B8B68C3F30A03C978EA
:1038C80043EA81431343134A1A43C0F8002B0020EC
:1038D80070BC7047D0F81C4803F00F06B24092B293
:1038E8002243C0F81C2800EB4310D0F8002912F43A
:1038F800004FECD1D0F800498A68C2F30A02C978AF
:1039080042EA814242EA83532343024A1A43C0F8F7
:103918000029DCE70080001030B40B784A78012ACF
:1039280024D000EB4313D3F8002B002A50DBD0F847
:103938003C580A7802F00F02012404FA02F225EA40
:103948000242C0F83C28D0F81C28097801F00F0181
:103958008C4022EA0444C0F81C48D3F8001B234AD0
:103968000A40C3F8002B002030BC704700EB43131B
:10397800D3F80029002A1EDBD0F83C580A7802F058
:103988000F02012404FA02F292B225EA0202C0F8F8
:103998003C28D0F81C28097801F00F018C40A4B20B
:1039A80022EA0404C0F81C48D3F80019104A0A4057
:1039B800C3F80029D7E7D3F8002942F00062C3F81A
:1039C8000029D3F8002942F08042C3F80029D3E740
:1039D800D3F8002B42F00062C3F8002BD3F8002B79
:1039E80042F08042C3F8002BA1E700BF0078F3EF54
:1039F800007833EC70B40B784C78012C24D000EBB1
:103A0800431000F530631D693E4C2C401C611D6954
:103A18003D4C2C401C614C690CB18C684C611C6994
:103A280044F400241C611C698D68C5F312052C43FD
:103A38001C61012A61D0D0F8003B43F00443C0F870
:103A4800003B002070BC70474C695CBB00EB431422
:103A5800D4F810692C4D3540C4F81059D4F81059D1
:103A680045F40025C4F81059D4F81069254D35409F
:103A7800C4F81059012A31D000EB4313D3F80029B8
:103A880042F00442C3F800294B69002BD9D0D0F882
:103A98003428097801F00F040121A1400A43C0F835
:103AA8003428CEE700EB431404F510642669154D5D
:103AB800354025612669144D354025614E698D686C
:103AC800AE4200D94D61256945F400252561256977
:103AD8004E69C6F3120635432561CBE70A691AB168
:103AE80000EB4311C1F8142900EB4310D0F800296A
:103AF80042F00442C0F80029A3E7CA68002A9AD015
:103B08005A6198E70000F8FFFFFF07E070B49DF8DE
:103B18000C4064B903339D0807E000EB023303F55A
:103B2800805351F8046B1E600134AC42F5D3002079
:103B380070BC7047F0B583B00B784C78012C29D055
:103B480000EB431303F5306426697D4D354025614C
:103B580026697C4D354025614D69002D40F0C180B6
:103B680025698E68C6F3120635432561256945F433
:103B780000252561012A00F0C980CA78012A00F0D1
:103B8800CB80D3F8002B42F00442C3F8002B00206E
:103B980003B0F0BD4C6974BB00EB4314D4F8106952
:103BA800684D3540C4F81059D4F8105945F400252B
:103BB800C4F81059D4F81069614D3540C4F810594B
:103BC800012A4AD000EB4313D3F8004944F00444D7
:103BD800C3F80049CC78012C68D04B69002BD6D0AB
:103BE800D0F83428097801F00F040121A1400A43D4
:103BF800C0F83428CBE700EB4314D4F81069504DD3
:103C08003540C4F81059D4F810694E4D3540C4F801
:103C18001059D4F810694D698F683D44013DB5FBD2
:103C2800F7F5494F07EAC5453543C4F81059D4F8A4
:103C380010594E69C6F312063543C4F8105904F5F5
:103C48001064CD78012DBBD1256925F0C0452561CB
:103C5800256945F000552561B2E70A691AB100EBFC
:103C68004314C4F81429CA78012A08D000EB431376
:103C7800D3F8002942F00442C3F8002987E7D0F8B6
:103C8800082812F4807F08D100EB4311D1F80029ED
:103C980042F00052C1F80029E8E700EB4311D1F8DF
:103CA800002942F08052C1F80029DFE7D0F808481F
:103CB80014F4807F0ED1D3F8004944F00054C3F8BF
:103CC800004914460B46C9681A789B8A0094FFF786
:103CD8001DFF5CE7D3F8004944F08054C3F800495D
:103CE800EFE78E683544013DB5FBF6F52669164FBA
:103CF80007EAC5473E43266127698E68ADB206FBD1
:103D080005F5C5F312053D43256133E7CA68002A66
:103D18003FF433AF626130E7D0F8082812F4807FAF
:103D280006D1D3F8002B42F00052C3F8002B28E745
:103D3800D3F8002B42F08052C3F8002B21E700BFD4
:103D48000000F8FFFFFF07E00000F81F03329208A9
:103D5800002393420CD210B400F58054246841F833
:103D6800044B01339342F7D308465DF8044B704780
:103D7800084670470B784A78012A14D000EB4310A4
:103D8800D0F8002B002A06DB2BB1D0F8003B23F03B
:103D98008043C0F8003BD0F8003B43F40013C0F860
:103DA800003B0020704700EB4310D0F80029002AA0
:103DB80006DB2BB1D0F8003923F08043C0F8003976
:103DC800D0F8003943F40013C0F80039E9E70B785C
:103DD8004A78012A0ED000EB4310D0F8003B23F4B8
:103DE8000013C0F8003BCB78023BDBB2012B15D99E
:103DF8000020704700EB4310D0F8003923F400137B
:103E0800C0F80039CB78023BDBB2012BF0D8D0F8F0
:103E1800003943F08053C0F80039E9E7D0F8003B97
:103E280043F08053C0F8003BE2E7D0F8003823F4B1
:103E3800FE63C0F80038D0F80038090101F4FE61CB
:103E48000B43C0F8003800207047D0F8003E23F03C
:103E58000303C0F8003ED0F8043823F00203C0F88A
:103E6800043800207047D0F8003E23F00303C0F860
:103E7800003ED0F8043843F00203C0F804380020AC
:103E880070474269806910407047D0F8183800F5CB
:103E98000060C0691840000C7047D0F8183800F569
:103EA8000060C069184080B2704700EB4111D1F83A
:103EB800082B00F5006040691040704710B4D0F836
:103EC8001048D0F8343801F00F02D340DB01DBB2E0
:103ED800234300EB411000F51060806818405DF83E
:103EE800044B7047406900F001007047D0F8002982
:103EF800054B1340C0F80039D0F8043843F48073F8
:103F0800C0F804380020704700F8FFFF10B4046CB4
:103F1800154B9C4203D9D0F8003B002B16DB00243C
:103F2800C0F8104BD0F8104B44F40024C0F8104BE4
:103F3800D0F8104B44F01804C0F8104BD0F8104BD0
:103F480044F0C044C0F8104B012903D000205DF8AC
:103F5800044B7047C0F8142BD0F8003B43F0802383
:103F6800C0F8003BF2E700BF0A30544F08B50349D8
:103F7800034800F0CDFF034B187008BDC8020020AD
:103F8800F8560008C402002000B583B00093134619
:103F98000A4601460348FEF701FB00B1012003B0C1
:103FA8005DF804FB3C02002000B583B00093134683
:103FB8000A4601460348FEF711FC00B1012003B090
:103FC8005DF804FB3C02002008B50348FEF7E1FE5B
:103FD800043818BF012008BD3C02002008B501467E
:103FE8000148FEF7C4FE08BD3C02002082B0012350
:103FF8008DF807309DF8070002B0704708B5FFF745
:10400800F5FF012801D0022008BD0248FEF790FE06
:10401800FAE700BF3C02002008B5074B01221A70DE
:10402800FFF7D2FF20B9044A137803F0FE03137098
:10403800014B187808BD00BF0C00002010B50446DD
:10404800074B01221A70FFF7D9FF10B1044B1878FB
:1040580010BD2046FFF7E0FF014B1870F6E700BFE0
:104068000C00002008B5FFF7D7FF08BD08B50846C3
:1040780011461A464FF0FF33FFF786FF20B9FFF7C6
:10408800A3FF0028FBD108BD0120FCE708B50846BE
:1040980011461A464FF0FF33FFF786FF20B9FFF7A6
:1040A80093FF0028FBD108BD0120FCE7154B1B78C6
:1040B80013F0010F21D110B588B0144603291ED87A
:1040C800DFE801F002050C13002008B010BD6846B7
:1040D800FFF784FF069B23600020F6E76846FFF79A
:1040E8007DFF079B23800020EFE76846FFF776FFF8
:1040F800079B5B0A23600020E7E703207047042042
:10410800E3E700BF0C00002010B5D0F8BC42D0F89F
:10411800C0325BB194F80002FF2807D09B6894F87E
:10412800012221469847FF2384F80032002010BD61
:104138004323038000487047100000204323038076
:10414800004870475400002043230380004870470C
:10415800980000200A23038000487047DC000020F4
:1041680038B5D0F8BC5275B1044601F0FEF8C5F870
:104178000C02D4F8C032DB6805F50371D5F80402E7
:104188009847002038BD0320FCE770B5D0F8C4423A
:10419800D0F8BC5255B301EB8102930003449B69EC
:1041A8006BB90024C5F81442D0F8C0321B690A461E
:1041B80005F50471D5F808029847204670BDC1EB93
:1041C800C106B2001444646CB3FBF4F204FB12336E
:1041D800002BE6D101EB81029300034400249C618B
:1041E8002346224601F036F92046E7E70320E5E7B3
:1041F80070B582B005460C46D0F8BC6200238DF835
:104208000730ADF804300B7813F0600227D0202A6D
:104218005BD1CA883AB9D0F8C0329B680022487886
:104228009847002054E013F0800F0CD0D0F8C0322B
:104238009B68314660789847E2883146284600F006
:1042480001FE002044E04B7886F800328B7986F82E
:104258000132CA88314600F00AFE002038E04B7867
:104268000B2B2ED8DFE803F006362D2D2D2D2D2D06
:104278002D2D142390F89C32032B05D1022201A97D
:1042880000F0E0FD002023E000F080FA03201FE0AA
:1042980090F89C32032B06D101220DF1070100F0A2
:1042A800D1FD002014E000F071FA032010E090F82E
:1042B8009C32032B01D100200AE000F067FA0320AA
:1042C80006E000F063FA032002E000F05FFA032042
:1042D80002B070BD0020FBE738B50446812101F02B
:1042E80099F8002525870121204601F093F8A4F8C4
:1042F80078518221204601F08DF8A4F84C50A4F89A
:104308004E50D4F8BC324BB1D4F8C0325B689847F1
:10431800D4F8BC0201F00AF9C4F8BC52002038BD38
:1043280070B504464FF4077001F0F8F8B0B30546CD
:10433800C4F8BC02237CB3BB4FF400730222812172
:10434800204601F05CF8012626874FF4007302220C
:104358003146204601F053F8A4F878611023A4F8F8
:104368004E30082303228221204601F048F8012319
:10437800A4F84C30D4F8C0321B6898470023C5F81D
:104388001432C5F81832237C0BB34023D5F8042225
:104398000121204601F066F8002070BD0023C4F812
:1043A800BC320220F9E7402302228121204601F095
:1043B80026F801262687402302223146204601F0AE
:1043C8001EF8A4F878611023A4F84E30C9E74FF41A
:1043D8000073D5F804220121204601F043F800209B
:1043E800DBE719B1C0F8C0120020704703207047FE
:1043F800D0F8BC32C3F80812C3F810220020704766
:10440800D0F8BC32C3F8041200207047D0F8BC22A0
:10441800A2B108B5D2F814320BB1012008BD0123AE
:10442800C2F81432D2F81032C362D2F81032D2F87D
:104438000822812101F00EF80020EFE703207047E1
:10444800D0F8BC229AB108B5037C3BB14023D2F81E
:104458000422012101F006F8002008BD4FF4007382
:10446800D2F80422012100F0FDFF0020F5E7032027
:104478007047C0B108B50346D0F8B80210B10020A3
:10448800C3F8B802D3F8CC0210B10020C3F8CC02AC
:1044980009B1C3F8B4121846012380F89C3202709F
:1044A80000F018FF08BD0320704710B582B0002344
:1044B800ADF8063059B10446C4F8B8128B6A0DF14C
:1044C80006009847C4F8CC02002002B010BD0320B3
:1044D800FBE708B500F08BFF08BD08B5D0F8B83287
:1044E80013B11B68984708BD0320FCE708B5D0F84E
:1044F800B8320BB15B689847002008BD38B5044650
:1045080000F2AA25284600F02DF90123C4F89432B8
:10451800B4F8B032C4F8983294F8AA1201F01F0324
:10452800012B0DD03BB1022B0FD001F080012046AA
:1045380000F078FF03E02946204600F0E0FA38BD95
:104548002946204600F016FBF9E72946204600F0E8
:1045580045FBF4E710B5044629BB1346D0F894226E
:10456800032A01D0002029E0D0F85C11D0F860219E
:1045780091420DD8D0F8B8321B6923B190F89C222B
:10458800032A00D19847204600F088FC002015E057
:10459800891AC0F85C118A4228BF0A46194600F0F9
:1045A80075FC00200AE00A46D0F8B8329B6933B19E
:1045B80090F89C12032904D11146984710BD032096
:1045C800FCE70320FAE710B50446002946D1134654
:1045D800D0F89422022A05D094F8A032012B39D0C1
:1045E800002046E0C269016A8A4213D88A421DD077
:1045F800D4F8B832DB682BB194F89C22032A01D195
:10460800204698478021204600F00CFF204600F005
:1046180050FCE1E7521AC261194600F020FC002361
:104628001A461946204600F01DFFD5E783699942CE
:10463800DED8D0F898229342DAD20022114600F050
:104648000EFC0021C4F898120B460A46204600F0DA
:1046580009FFC1E7002084F8A0020AE00A46D0F862
:10466800B8325B6933B190F89C12032904D1114622
:10467800984710BD0320FCE70320FAE770B504460D
:10468800012380F89C320023C0F894324360C0F8BC
:10469800A432D0F8BC3223B1D0F8B8325B6800211C
:1046A8009847402300221146204600F0A8FE012624
:1046B800A4F864614025C4F860512B46002280218B
:1046C800204600F09CFEA6842562002070BD01747F
:1046D8000020704790F89C3280F89D32042380F8BF
:1046E8009C320020704790F89C32042B01D00020A7
:1046F800704790F89D3280F89C32F8E708B590F83A
:104708009C32032B01D0002008BDD0F8B832DB69F9
:10471800002BF8D09847F6E7002070470020704734
:104728000020704708B5012380F89C32D0F8B832D1
:1047380013B15B6801799847002008BD002302E0A7
:104748000133DBB201300278002AF9D118467047EC
:1047580008B54B88012B00D008BDC0F8A43200F082
:104768009DFBF9E70B7803704B7843708B78CA7818
:1047780043EA022343800B794A7943EA0223838080
:104788008B79CA7943EA0223C380704710B504467F
:10479800802100F047FE0021204600F043FE10BDB6
:1047A80030B583B004460D460023ADF806304A887C
:1047B800130A013B0E2B00F2BC80DFE803F0153032
:1047C80044BABA9EABBABABABABABABA0800D0F8FA
:1047D800B432DB6923B10DF10601007C98470AE089
:1047E8002946FFF7D3FF18E0D0F8B4321B680DF163
:1047F8000601007C9847EA88002A00F0A380BDF8EB
:104808000630002B00F099809A4228BF1A46ADF86E
:1048180006200146204600F015FB03B030BD037C9E
:1048280043B9D0F8B8329B6A0DF1060098470223C5
:104838004370E0E7D0F8B832DB6A0DF1060098471C
:1048480002234370D7E7D2B2052A52D8DFE802F034
:1048580003101D2A3744D0F8B4325B6823B10DF138
:104868000601007C9847C6E72946FFF78FFFD4E783
:10487800D0F8B4329B6823B10DF10601007C98474B
:10488800B9E72946FFF782FFC7E7D0F8B432DB68FB
:1048980023B10DF10601007C9847ACE72946FFF7E4
:1048A80075FFBAE7D0F8B4321B6923B10DF10601E0
:1048B800007C98479FE72946FFF768FFADE7D0F8E7
:1048C800B4325B6923B10DF10601007C984792E789
:1048D8002946FFF75BFFA0E7D0F8B4329B6923B104
:1048E8000DF10601007C984785E72946FFF74EFF42
:1048F80093E72946FFF74AFF8FE7037C33B9D0F8DF
:10490800B8325B6B0DF10600984774E72946FFF74C
:104918003DFF82E7037C43B9D0F8B8321B6B0DF139
:10492800060098470723437065E72946FFF72EFFDF
:1049380073E72946FFF72AFF6FE729462046FFF766
:1049480025FF6AE7204600F0A9FA66E738B504466D
:104958008B88F3B9CB88E3B94B887F2B19D803F040
:104968007F0590F89C32032B0CD080F89E52294684
:1049780000F068FD204600F091FA35B1022384F872
:104988009C3209E0FFF702FF06E0012384F89C321D
:1049980002E02046FFF7FAFE38BD000070B5044675
:1049A8000D4689782E4B197001290FD890F89C3242
:1049B800022B11D0032B25D02946FFF7E7FE284B01
:1049C80019782046FFF792FD032603E02946FFF7F2
:1049D800DDFE0326304670BD81B14160FFF77DFDE5
:1049E800064620B129462046FFF7D0FEF2E72046CA
:1049F80000F054FA032384F89C32EBE700F04EFAF7
:104A08000026E7E7C9B14368994225D0D9B2FFF734
:104A18006DFD134B197861602046FFF75EFD064671
:104A2800B0B129462046FFF7B1FE21792046FFF7AD
:104A38005DFD022384F89C32CCE7022380F89C3287
:104A48004160FFF753FD204600F028FA0026C1E731
:104A5800204600F023FABDE700F020FA0026B9E767
:104A68002402002008B5CB88012B0BD190F89C328A
:104A78009BB1022B09D9032B0FD10122011D00F094
:104A8800E1F901E0FFF782FE08BD0146002341F885
:104A9800083F012200F0D6F9F6E7FFF777FEF3E7C3
:104AA80008B590F89C32013B022B12D8CB88022B18
:104AB8000CD10123C360D0F8A4320BB10323C36027
:104AC800022200F10C0100F0BDF908BDFFF75EFEFF
:104AD800FBE7FFF75BFEF8E708B590F89C32013B6F
:104AE800022B09D84B88012B00D008BD0023C0F841
:104AF800A43200F0D3F9F8E7FFF748FEF5E708B568
:104B08000B7803F06003202B06D0402B04D043B170
:104B1800FFF73CFE002003E0D0F8B8329B689847C6
:104B280008BD4B78092B21D8DFE803F0141C2018A6
:104B380020090520100DFFF733FE0020F0E7FFF7EE
:104B480005FF0020ECE7FFF729FFE9E7FFF78AFFF9
:104B58000020E5E7FFF7A4FF0020E1E7FFF7F8FDF5
:104B68000020DDE7FFF7B8FF0020D9E7FFF70EFECA
:104B78000020D5E770B505460C460B7803F06003B6
:104B8800202B07D0402B05D023B1FFF7FFFD0026CF
:104B9800304670BD95F89C32013B022B18D823791A
:104BA800012B0FD8D5F8B8329B682146284698477C
:104BB8000646E388002BEBD10028E9D1284600F00F
:104BC8006DF9E5E721462846FFF7E0FD0026DFE717
:104BD80021462846FFF7DAFD0026D9E738B505460D
:104BE8000C468A880B7803F06003202B08D0D1B2DA
:104BF800402B05D05BB12146FFF7C8FD002005E03A
:104C0800D5F8B8329B6821462846984738BD63785E
:104C1800012B38D0002B6BD0032B40F0F08090F89C
:104C28009C32022B06D0032B19D02146FFF7AEFD8C
:104C38000020EBE7B1F1800318BF0123002908BF6A
:104C480000233BB100F0EEFB8021284600F0EAFB90
:104C58000020DBE72146FFF799FD0020D6E76388AF
:104C68004BB9B1F1800318BF0123002908BF002305
:104C78000BB1E38823B1284600F010F90020C5E7FE
:104C880000F0D0FBF7E790F89C32022B06D0032BFC
:104C980019D02146FFF77AFD0020B7E7B1F180036C
:104CA80018BF0123002908BF00233BB100F0BAFB5D
:104CB8008021284600F0B6FB0020A7E72146FFF731
:104CC80065FD0020A2E76388002B40F09D8011F06D
:104CD8007F0F0AD1284600F0E1F8D5F8B8329B6872
:104CE800214628469847002090E700F0A3FBF1E70B
:104CF80090F89C32022B06D0032B2FD02146FFF7C9
:104D080045FD002082E7B1F1800318BF0123002987
:104D180008BF00239BB912F0800F15D101F07F0165
:104D280001EB81018B0003F5A871014404310024D3
:104D38000C600222284600F085F8204666E72146E6
:104D4800FFF724FD002061E701F07F0101EB8101FD
:104D58008B0003F1100101440431E8E752B2002A44
:104D680024DB01F00F0303EB830398002844B0F819
:104D7800643153B3002A2EDB01F07F0202EB82027A
:104D8800930003F5A8742C440434802914BF00232D
:104D98000123002908BF01233BB30023236002221B
:104DA8002146284600F04EF800202FE701F00F03B7
:104DB80003EB830398002844838C002BDAD1214627
:104DC8002846FFF7E3FC002020E721462846FFF7A6
:104DD800DDFC00201AE701F07F0202EB820293005B
:104DE80003F110042C440434CFE7284600F0A6FA57
:104DF80010B101232360D2E700232360CFE72146C7
:104E0800FFF7C4FC002001E70020FFE6C8B170B539
:104E18000D4616460446FFF791FC013040003080ED
:104E2800287003236B70022307E0EA5401345A1CEC
:104E3800D2B20021A9540233DBB22278002AF4D17D
:104E480070BD704710B513460222C0F894228361E2
:104E5800C3610A46002100F0FDFA002010BD08B524
:104E680013460A46002100F0F5FA002008BD10B5E7
:104E780013460322C0F89422C0F85831C0F85C31B8
:104E88000A46002100F0EEFA002010BD08B51346CE
:104E98000A46002100F0E6FA002008BD08B5042300
:104EA800C0F8943200231A46194600F0D3FA0020BD
:104EB80008BD08B50523C0F8943200231A461946E0
:104EC80000F0D0FA002008BD104B5B7ADBB930B493
:104ED8000E4B5D7AEDB200245C555D7A03EB8505D7
:104EE8006860587A184402725A7AD2B2501CC0B21A
:104EF800587230320A703A234B702F238B70CC7063
:104F0800204630BC70470120704700BF28020020AF
:104F180008B50022FFF7D8FF08BD000008B5002239
:104F28000F491048FFF7A5FA70B90F490D48FFF768
:104F3800BCFA60B90D490B48FFF753FA50B9094854
:104F4800FFF7C7FA48B908BDFBF7B2FBEDE7FBF777
:104F5800AFFBEFE7FBF7ACFBF1E7FBF7A9FBF2E7E9
:104F68007C0100202C070020E800002028010020F8
:104F780000207047202803D0212809D0002070473E
:104F8800074B0868186088888A7998809A71F5E7CD
:104F9800034B186808609A889B798A808B71EDE7C3
:104FA800200100200020704710B5054C014620461E
:104FB800FFF726FA2046FFF743FA002010BD00BF8E
:104FC8002C07002010B5064C002206492046FFF7A2
:104FD8000FFA05492046FFF713FA002010BD00BF5D
:104FE8002C070020FC110020FC090020094BD3F8F5
:104FF800BC32D3F814320BB10120704710B50A4601
:105008000146044C2046FFF7F3F92046FFF7FEF966
:1050180010BD00BF2C07002012230B8000487047EA
:105028003C01002004230B800048704750010020F9
:105038000C230B8000487047540100200023934242
:1050480016D230B40BE0373401F8134000015C008D
:10505800013400250D550133DBB2934206D2040F0B
:10506800092CF0D8303401F81340EFE730BC704712
:105078007047000038B50B4B186804331C680433BC
:105088001B68C01800D138BD074D082205F126015C
:10509800FFF7D4FF042205F136012046FFF7CEFFC3
:1050A800F1E700BF20F4F01F3C01002008B51A23E7
:1050B8000B80FFF7DFFF014808BD00BF600100203B
:1050C80008B50A4628B105490548FFF79FFE034879
:1050D80008BD02490248FFF799FEF8E7FC190020CD
:1050E8001857000810B5044C0A4621460348FFF734
:1050F8008DFE204610BD00BFFC1900203057000867
:1051080008B50A4628B105490548FFF77FFE034858
:1051180008BD02490248FFF779FEF8E7FC190020AC
:105128004457000808B50A4628B105490548FFF75D
:105138006DFE034808BD02490248FFF767FEF8E71D
:10514800FC1900205057000808B5FBF7B3FA08BD52
:1051580070B588B0002303930493059306930793CF
:105168000368B3F1A04F01D008B070BD1E4C236B8B
:1051780043F001032363236B03F001030093009BB7
:105188004FF4E853039302230493032306930A235B
:105198000793164E03A93046FBF768FC4FF40073DB
:1051A800039300250495059503A93046FBF75EFC9B
:1051B800636B43F080036363636B03F080030193C5
:1051C800019B636C43F480436364636C03F4804322
:1051D8000293029B2A4629464320FBF7F1FB432012
:1051E800FBF720FCC0E700BF003802400000024087
:1051F80008B500F57171D0F80004FFF77FF908BD14
:1052080008B5C1EBC10293000344D3F80822D0F8D3
:105218000004FFF79FF908BD08B5C1EBC102930070
:1052280003449A6CD0F80004FFF7CDF908BD08B51F
:10523800D0F80004FFF762FA08BD10B50446C36849
:105248002BB1022B0DD0FBF733FA012100E000212E
:10525800D4F80004FFF73BFAD4F80004FFF70EFA7D
:1052680010BD0121F4E7000010B50446D0F8000491
:10527800FFF730FA2268D2F8003E43F00103C2F883
:10528800003E236A23B1034A136943F006031361FE
:1052980010BD00BF00ED00E008B5D0F80004FFF72E
:1052A80022FA08BD08B5D0F80004FFF737FA08BDA0
:1052B80008B5D0F80004FFF72FFA08BD08B5D0F8F4
:1052C8000004FFF72DFA08BD08B5D0F80004FFF771
:1052D80029FA08BD03780BB10020704710B50346C2
:1052E8001548C0F80034C3F8C4024FF0A043036067
:1052F800062343600222C260002303618261012207
:10530800C26103624362C2620363FBF70DFD80B9A9
:10531800094C80212046FCF75AFA402200212046F9
:10532800FCF731FA802201212046FCF72CFA0020F4
:1053380010BDFBF7BDF9EBE7FC1B0020D0F8C43229
:1053480011F0800F08D101F07F01C1EBC1018A0083
:10535800134493F8FE01704701F07F01C1EBC101CE
:105368008A00134493F83E00704708B5D0F8C40289
:10537800FCF75EF908BD000010B5044611B101291B
:1053880016D010BD036A5BB92268D2F8003E23F03C
:105398000103C2F8003ED4F80004FFF7A4F9F0E7CF
:1053A800FFF7D2FE0C4A136923F006031361EBE7FB
:1053B8000268D2F8003E43F00103C2F8003ED0F87C
:1053C8000004FFF787F9236A002BDAD0024A136931
:1053D80043F006031361D4E700ED00E018B102289A
:1053E80003D003207047002070470120704708B59C
:1053F800D0F8C402FBF730FDFFF7F0FF08BD10B589
:105408001C4613462246D0F8C402FCF76BF8FFF797
:10541800E5FF10BD08B5D0F8C402FCF7A4F8FFF703
:10542800DDFF08BD08B5D0F8C402FCF734F9FFF772
:10543800D5FF08BD08B5D0F8C402FCF76DF9FFF731
:10544800CDFF08BD08B5D0F8C402FCF737F8FFF760
:10545800C5FF08BD08B5D0F8C402FCF7F2F8FFF79D
:10546800BDFF08BD08B5D0F8C402FCF7B3F8FFF7D4
:10547800B5FF08BDDFF834D00D480E490E4A0023A9
:1054880002E0D458C4500433C4188C42F9D30B4AF0
:105498000B4C002301E013600432A242FBD3FBF75C
:1054A8001DFA00F017F8FBF76FF9704700000520A8
:1054B80000000020000200207057000800020020B1
:1054C80004200020FEE70000014B1868704700BF69
:1054D8009C01002070B50D4E0D4CA41BA410002596
:1054E800A54209D10B4E0C4C00F0EAF8A41BA410FD
:1054F8000025A54205D170BD56F8253098470135DD
:10550800EEE756F8253098470135F2E76857000866
:1055180068570008685700086C570008024B014696
:10552800186800F061B800BF9C010020024B0146DA
:10553800186800F00BB800BF9C0100200244034625
:10554800934200D1704703F8011BF9E738B50546C7
:10555800002945D051F8043C0C1F002BB8BFE418B3
:1055680000F0ACF81F4A1368104633B96360146042
:105578002846BDE8384000F0A2B8A3420CD92168FB
:105588006218934204BF1A685B68636004BF5218CC
:1055980022600460ECE713465A680AB1A242FAD9BD
:1055A80019685818A0420BD1206801445818824243
:1055B8001960DDD1106852685A6001441960D7E754
:1055C80002D90C232B60D3E7206821188A4204BF34
:1055D80011685268626004BF091821605C60C7E7FF
:1055E80038BD00BF3402002070B5CD1C25F003057E
:1055F80008350C2D38BF0C25002D064601DBA942C5
:1056080003D90C233360002070BD00F057F8214AFD
:105618001468214691B9204C23681BB9304600F024
:105628003DF820602946304600F038F8431C24D164
:105638000C233360304600F042F8E4E70B685B1B4C
:1056480018D40B2B0FD90B60CD50CC18304600F076
:1056580036F804F10B00231D20F00700C31AD3D03D
:105668005A42E250D0E78C424B6816BF6360136021
:105678000C46EBE70C464968CCE7C41C24F003044D
:10568800A04205D0211A304600F008F80130CFD0EA
:105698002560DBE7340200203802002038B5064CCC
:1056A8000023054608462360FBF7FAF8431C02D19D
:1056B800236803B12B6038BD002000207047704775
:1056C800F8B500BFF8BC08BC9E467047F8B500BFE7
:0856D800F8BC08BC9E467047B7
:1056E0000000000000000000010203040607080992
:1056F0000000000001020304454000086D4000085E
:105700007540000895400008B54000085374617268
:105710007465640A0000000053544D33322056690A
:10572000727475616C20436F6D506F72740000006D
:1057300053544D6963726F656C656374726F6E6903
:105740006373000043444320436F6E666967000043
:1057500043444320496E74657266616365000000CE
:08576000D8AAFF7F0100000040
:04576800ED01000847
:04576C00C901000867
:105770000024F400010000001000000001000000FF
:1057800009024300020100C03209040000010202C4
:105790000100052400100105240100010424020277
:1057A0000524060001070582030800100904010012
:1057B000020A0000000705010240000007058102FF
:1057C0004000000009024300020100C03209040049
:1057D000000102020100052400100105240100015E
:1057E00004240202052406000107058203080010B4
:1057F00009040100020A000000070501020002007E
:10580000070581020002000009074300020104C0ED
:105810003209040000010202010005240010010504
:105820002401000104240202052406000107058268
:105830000308001009040100020A00000007050126
:105840000240000007058102400000000A06000235
:10585000000000400100000029430008E142000868
:10586000F9410008000000001141000893410008C0
:105870006941000800000000000000000000000076
:105880004541000839410008514100085D410008C8
:1058900000C2010000000800CD4F0008794F000849
:1058A0007D4F0008B14F0008AD4F00081201010202
:1058B000020200408304405700020102030100007D
:1058C00004030904050F0C00010710020200000088
:1058D0001A030000000000000000000000000000AB
:1058E000000000000000000000000000215000083F
:1058F0002D500008ED500008C9500008B5500008B0
:10590000095100082D51000839500008A00100205D
:105910000000000000000000000000000000000087
:105920000000000000000000000000000000000077
:105930000000000000000000000000000000000067
:105940000000000000000000000000000000000057
:105950000000000000000000000000000000000047
:105960000000000000000000000000000000000037
:040000050800547D1E
:00000001FF
